:020000040800F2
:1000000000500020A14F0008A9160008AB160008F8
:10001000AD160008AF160008B11600080000000079
:10002000000000000000000000000000B3160008FF
:10003000B516000800000000B7160008B916000841
:10004000E94F0008E94F0008E94F0008E94F0008B0
:10005000E94F0008E94F0008E94F0008E94F0008A0
:10006000E94F0008E94F0008E94F0008E94F000890
:10007000E94F0008E94F0008C1160008D116000832
:10008000E1160008E94F0008E94F0008E94F0008B1
:10009000E94F0008E94F0008E94F0008E94F000860
:1000A000F1160008011700081117000821170008B1
:1000B000E94F0008E94F0008E94F00083117000830
:1000C00041170008E94F0008E94F0008E94F000810
:1000D000E94F000851170008E94F0008E94F0008F0
:1000E000E94F0008E94F0008E94F00080000000050
:1000F0000000000000000000000000000000000000
:0C01000000000000000000005FF808F1A3
:1001100010B5054C237833B9044B13B10448AFF341
:1001200000800123237010BDD809002000000000CA
:1001300064BC000808B5034B1BB103490348AFF387
:10014000008008BD00000000DC09002064BC00083D
:10015000844641EA000313F0030349D1403A23D314
:100160000B6803604B6843608B688360CB68C36037
:100170000B6903614B6943618B698361CB69C3611F
:100180000B6A03624B6A43628B6A8362CB6AC36207
:100190000B6B03634B6B43638B6B8363CB6BC363EF
:1001A00040304031403ADBD230320BD30B68036031
:1001B0004B6843608B688360CB68C360103010313C
:1001C000103AF3D20C3205D351F8043B40F8043B0B
:1001D000043AF9D2043208D0D2071CBF11F8013B0F
:1001E00000F8013B01D30B8803806046704700BFD5
:1001F000082A13D38B07B1D010F00303AED0C3F19C
:100200000403D21ADB071CBF11F8013B00F8013BC5
:10021000A4D331F8023B20F8023B9FE7043AD9D33C
:10022000013A11F8013B00F8013BF9D20B78037059
:100230004B7843708B7883706046704780EA010C7E
:100240001CF0030F37D110F0030C20F0030021F055
:10025000030150F8042B08BF51F8043B0ED08CF07A
:10026000030C6FF07F434FEACC0C23FA0CFC51F8DF
:10027000043B42EA0C0243EA0C0300BFA2F1013C3A
:100280009A4201BF2CEA020C1CF0803F50F8042B6C
:1002900051F8043BF2D04FEA02604FEA12220128E3
:1002A00028BFB0EB036F08BF1B0AF4D003F0FF03B5
:1002B000000EC01A704710F0030F0AD010F8012B7F
:1002C00011F8013B012A28BF9A42F4D0A2EB0300A7
:1002D00070474DF8045D50F8042B01F0030521F040
:1002E000030151F8043B022D26D04DD822F07F4562
:1002F000B5EB132FA2F1013C2CEA020C0DD11CF03E
:10030000803C08BF51F8043B0AD185EA0205B5EBF1
:10031000036F0CD150F8042BE8E74FEA13235BE09E
:100320003CF07F4C54D10B784FEA126554E04FEA11
:10033000126503F0FF034FE04FEA0245A2F1013CD2
:100340004FEA15452CEA020CB5EB134F18D11CF0FF
:10035000803C08BF51F8043B07D185EA0205B5EBA4
:10036000034F09D150F8042BE6E75FEA0C4C2FD17C
:100370000B884FEA12452FE04FEA03434FEA12453C
:100380004FEA134328E000BF02F0FF05B5EB136FFF
:10039000A2F1013C2CEA020C0DD11CF0803C08BFFC
:1003A00051F8043B0AD185EA0205B5EB032F0AD1C7
:1003B00050F8042BE8E74FEA13630DE012F0FF0F4B
:1003C00006D051F8043B4FEA122523F07F4303E0A7
:1003D0004FF0000020BC704705F0FF0203F0FF0063
:1003E000012828BF904204BF2D0A1B0AF4D0A2EBBB
:1003F000000020BC704700BF81F0004102E000BF58
:1004000083F0004330B54FEA41044FEA430594EAD4
:10041000050F08BF90EA020F1FBF54EA000C55EA0F
:10042000020C7FEA645C7FEA655C00F0E2804FEAE0
:100430005454D4EB5555B8BF6D420CDD2C4480EAC2
:10044000020281EA030382EA000083EA010180EAF2
:10045000020281EA0303362D88BF30BD11F0004F40
:100460004FEA01314FF4801C4CEA113102D0404276
:1004700061EB410113F0004F4FEA03334CEA1333B1
:1004800002D0524263EB430394EA050F00F0A780C9
:10049000A4F10104D5F1200E0DDB02FA0EFC22FAC4
:1004A00005F2801841F1000103FA0EF2801843FAB8
:1004B00005F359410EE0A5F120050EF1200E012AA9
:1004C00003FA0EFC28BF4CF0020C43FA05F3C018E7
:1004D00051EBE37101F0004507D54FF0000EDCF160
:1004E000000C7EEB00006EEB0101B1F5801F1BD309
:1004F000B1F5001F0CD349085FEA30004FEA3C0C0D
:1005000004F101044FEA445212F5800F80F09A8002
:10051000BCF1004F08BF5FEA500C50F1000041EB06
:10052000045141EA050130BD5FEA4C0C404141EB0A
:100530000101013C28BFB1F5801FE9D291F0000F05
:1005400004BF01460020B1FA81F308BF2033A3F1B4
:100550000B03B3F120020CDA0C3208DD02F1140CAB
:10056000C2F10C0201FA0CF021FA02F10CE002F1E6
:100570001402D8BFC2F1200C01FA02F120FA0CFCDF
:10058000DCBF41EA0C019040E41AA2BF01EB045128
:10059000294330BD6FEA04041F3C1CDA0C340EDC26
:1005A00004F11404C4F1200220FA04F001FA02F369
:1005B00040EA030021FA04F345EA030130BDC4F127
:1005C0000C04C4F1200220FA02F001FA04F340EA1C
:1005D0000300294630BD21FA04F0294630BD94F0CD
:1005E000000F83F4801306BF81F480110134013DB4
:1005F0004EE77FEA645C18BF7FEA655C29D094EA25
:10060000050F08BF90EA020F05D054EA000C04BFA2
:100610001946104630BD91EA030F1EBF002100208D
:1006200030BD5FEA545C05D14000494128BF41F02C
:10063000004130BD14F580043CBF01F5801130BD90
:1006400001F0004545F0FE4141F470014FF000001B
:1006500030BD7FEA645C1ABF194610467FEA655CCC
:100660001CBF0B46024650EA013406BF52EA03356E
:1006700091EA030F41F4002130BD00BF90F0000F5C
:1006800004BF0021704730B54FF4806404F1320498
:100690004FF000054FF0000150E700BF90F0000F51
:1006A00004BF0021704730B54FF4806404F1320478
:1006B00010F0004548BF40424FF000013EE700BF48
:1006C00042004FEAE2014FEA31014FEA02701FBFD8
:1006D00012F07F4393F07F4F81F06051704732F00A
:1006E0007F4208BF704793F07F4F04BF41F4002161
:1006F000704730B54FF4607401F0004521F00041BF
:100700001CE700BF50EA010208BF704730B54FF048
:1007100000050AE050EA010208BF704730B511F049
:10072000004502D5404261EB41014FF4806404F181
:1007300032045FEA915C3FF4D8AE4FF003025FEA07
:10074000DC0C18BF03325FEADC0C18BF033202EB8B
:10075000DC02C2F1200300FA03FC20FA02F001FAE5
:1007600003FE40EA0E0021FA02F11444BDE600BF88
:1007700070B54FF0FF0C4CF4E06C1CEA11541DBF37
:100780001CEA135594EA0C0F95EA0C0F00F0DEF802
:100790002C4481EA030621EA4C5123EA4C5350EAE7
:1007A000013518BF52EA033541F4801143F4801338
:1007B00038D0A0FB02CE4FF00005E1FB02E506F0C9
:1007C0000042E0FB03E54FF00006E1FB03569CF01E
:1007D000000F18BF4EF0010EA4F1FF04B6F5007F24
:1007E00064F5407404D25FEA4E0E6D4146EB060696
:1007F00042EAC62141EA55514FEAC52040EA5E501F
:100800004FEACE2EB4F1FD0C88BFBCF5E06F1ED8C8
:10081000BEF1004F08BF5FEA500E50F1000041EBFF
:10082000045170BD06F0004646EA010140EA0200AC
:1008300081EA0301B4EB5C04C2BFD4EB0C0541EACE
:10084000045170BD41F480114FF0000E013C00F3E3
:10085000AB8014F1360FDEBF002001F0004170BD07
:10086000C4F10004203C35DA0C341BDC04F1140420
:10087000C4F1200500FA05F320FA04F001FA05F2AC
:1008800040EA020001F0004221F0004110EBD37079
:1008900021FA04F642EB06015EEA430E08BF20EAA5
:1008A000D37070BDC4F10C04C4F1200500FA04F348
:1008B00020FA05F001FA04F240EA020001F00041DA
:1008C00010EBD37041F100015EEA430E08BF20EA4D
:1008D000D37070BDC4F1200500FA05F24EEA020E95
:1008E00020FA04F301FA05F243EA020321FA04F0C4
:1008F00001F0004121FA04F220EA020000EBD3707B
:100900005EEA430E08BF20EAD37070BD94F0000F7A
:100910000FD101F00046400041EB010111F4801FAE
:1009200008BF013CF7D041EA060195F0000F18BF5F
:10093000704703F00046520043EB030313F4801F9B
:1009400008BF013DF7D043EA0603704794EA0C0F55
:100950000CEA135518BF95EA0C0F0CD050EA41066B
:1009600018BF52EA4306D1D181EA030101F00041E8
:100970004FF0000070BD50EA410606BF1046194610
:1009800052EA430619D094EA0C0F02D150EA01361C
:1009900013D195EA0C0F05D152EA03361CBF10465D
:1009A00019460AD181EA030101F0004141F0FE41FC
:1009B00041F470014FF0000070BD41F0FE4141F480
:1009C000780170BD70B54FF0FF0C4CF4E06C1CEA80
:1009D00011541DBF1CEA135594EA0C0F95EA0C0F35
:1009E00000F0A7F8A4EB050481EA030E52EA0335F0
:1009F0004FEA013100F088804FEA03334FF0805511
:100A000045EA131343EA12634FEA022245EA11153D
:100A100045EA10654FEA00260EF000419D4208BFEE
:100A2000964244F1FD0404F5407402D25B084FEA9B
:100A30003202B61A65EB03055B084FEA32024FF447
:100A400080104FF4002CB6EB020E75EB030E22BFA4
:100A5000B61A754640EA0C005B084FEA3202B6EB64
:100A6000020E75EB030E22BFB61A754640EA5C0013
:100A70005B084FEA3202B6EB020E75EB030E22BFA3
:100A8000B61A754640EA9C005B084FEA3202B6EBA4
:100A9000020E75EB030E22BFB61A754640EADC0063
:100AA00055EA060E18D04FEA051545EA16754FEAC5
:100AB00006164FEAC30343EA52734FEAC2025FEAE3
:100AC0001C1CC0D111F4801F0BD141EA00014FF072
:100AD00000004FF0004CB6E711F4801F04BF014343
:100AE0000020B4F1FD0C88BFBCF5E06F3FF6AFAE5F
:100AF000B5EB030C04BFB6EB020C5FEA500C50F1EF
:100B0000000041EB045170BD0EF0004E4EEA113171
:100B100014EB5C04C2BFD4EB0C0541EA045170BD78
:100B200041F480114FF0000E013C90E645EA060EBC
:100B30008DE60CEA135594EA0C0F08BF95EA0C0FEA
:100B40003FF43BAF94EA0C0F0AD150EA01347FF432
:100B500034AF95EA0C0F7FF425AF104619462CE709
:100B600095EA0C0F06D152EA03353FF4FDAE10466C
:100B7000194622E750EA410618BF52EA43067FF4BD
:100B8000C5AE50EA41047FF40DAF52EA43057FF44D
:100B9000EBAE12E74FF0FF3C06E000BF4FF0010C58
:100BA00002E000BF4FF0010C4DF804CD4FEA410CBC
:100BB0007FEA6C5C4FEA430C18BF7FEA6C5C1BD089
:100BC00001B050EA410C0CBF52EA430C91EA030F0A
:100BD00002BF90EA020F0020704710F1000F91EA67
:100BE000030F58BF994208BF90422CBFD8176FEA35
:100BF000E37040F0010070474FEA410C7FEA6C5C03
:100C000002D150EA013C07D14FEA430C7FEA6C5C09
:100C1000D6D152EA033CD3D05DF8040B704700BF35
:100C20008446104662468C461946634600E000BF83
:100C300001B5FFF7B7FF002848BF10F1000F01BD55
:100C40004DF808EDFFF7F4FF0CBF012000205DF820
:100C500008FB00BF4DF808EDFFF7EAFF34BF0120A5
:100C600000205DF808FB00BF4DF808EDFFF7E0FF3E
:100C700094BF012000205DF808FB00BF4DF808ED8F
:100C8000FFF7CEFF94BF012000205DF808FB00BFF6
:100C90004DF808EDFFF7C4FF34BF012000205DF8D8
:100CA00008FB00BF4FEA410C7FEA6C5C02D150EABE
:100CB000013C0AD14FEA430C7FEA6C5C02D152EA54
:100CC000033C02D14FF0000070474FF00100704725
:100CD0004FEA410212F5001215D211D56FF4787364
:100CE000B3EB625212D94FEAC12343F0004343EA07
:100CF000505311F0004F23FA02F018BF40427047E2
:100D00004FF00000704750EA013005D111F000406B
:100D100008BF6FF0004070474FF00000704700BF01
:100D200053B94AB9002908BF00281CBF4FF0FF3152
:100D30004FF0FF3000F076B9ADF1080C6DE904CE4C
:100D400000F006F8DDF804E0DDE9022304B07047A6
:100D50002DE9F047089E0D4604468846002B4DD1EC
:100D60008A42944668D9B2FA82F252B101FA02F389
:100D7000C2F1200120FA01F10CFA02FC41EA030859
:100D800094404FEA1C41B8FBF1F71FFA8CFE01FBBF
:100D9000178807FB0EF0230C43EA084398420AD950
:100DA0001CEB030307F1FF3580F01E81984240F2EF
:100DB0001B81023F63441B1AB3FBF1F001FB1033AC
:100DC00000FB0EFEA4B244EA0344A6450AD91CEB7C
:100DD000040400F1FF3380F00981A64540F206814A
:100DE000644402380021A4EB0E0440EA07401EB11F
:100DF0000023D440C6E90043BDE8F0878B4208D900
:100E0000002E00F0EE800021C6E900050846BDE88E
:100E1000F087B3FA83F100294AD1AB4202D3824270
:100E200000F2FC80841A65EB030301209846002E33
:100E3000E2D0C6E90048DFE702B9FFDEB2FA82F28B
:100E4000002A40F09180A1EB0C0001214FEA1C47E1
:100E50001FFA8CFEB0FBF7F307FB1300250C45EAE5
:100E600000450EFB03F0A84208D91CEB050503F171
:100E7000FF3802D2A84200F2CE8043462D1AB5FBBD
:100E8000F7F007FB10550EFB00FEA4B244EA054440
:100E9000A64508D91CEB040400F1FF3502D2A64593
:100EA00000F2B6802846A4EB0E0440EA03409EE719
:100EB000C1F120078B4022FA07FC4CEA030C25FA0B
:100EC00007FA4FEA1C49BAFBF9F820FA07F309FBC5
:100ED00018AA8D401FFA8CFE1D4300FA01F308FB8F
:100EE0000EF02C0C44EA0A44A04202FA01F20BD99B
:100EF0001CEB040408F1FF3A80F08880A04240F225
:100F00008580A8F102086444241AB4FBF9F009FBB7
:100F1000104400FB0EFEADB245EA0444A64508D9D4
:100F20001CEB040400F1FF356CD2A6456AD90238E7
:100F3000644440EA0840A0FB0295A4EB0E04AC42D6
:100F4000C846AE4656D353D0002E69D0B3EB080244
:100F500064EB0E0422FA01F304FA07F71F43CC40B6
:100F6000C6E90074002147E70CFA02FCC2F1200137
:100F700025FA01F34FEA1C4720FA01F195400D4391
:100F8000B3FBF7F107FB11331FFA8CFE280C40EA84
:100F9000034001FB0EF3834204FA02F408D91CEB70
:100FA000000001F1FF382FD283422DD9023960446D
:100FB000C01AB0FBF7F307FB1300ADB245EA0045DA
:100FC00003FB0EF0A84208D91CEB050503F1FF381E
:100FD00016D2A84214D9023B6544281A43EA0141BB
:100FE00038E73146304607E72F46E4E61846F9E68B
:100FF0004B45A9D2B9EB020865EB0C0E0138A3E70B
:101000004346EAE7284694E74146D1E7D0467BE7E6
:101010006444023847E7023B65442FE7084606E789
:101020003146E9E6704700BF38B50B4C2378CA1A41
:10103000D2B20A4D2A700A4919440A4803F072FCD8
:1010400023782A781344DBB2237013F0800F00D189
:1010500038BD00222270FBE7F4090020F5090020CA
:10106000000A0020800A002072B6FEE700B591B0A9
:101070002822002106A804F095FA00230193029388
:10108000039304930593012206924FF48033079350
:101090000A9202220D920E934FF4E0130F9306A8CA
:1010A00001F0B2FC80B90F230193022102910023C9
:1010B00003934FF480620492059301A801F0E4FECB
:1010C00020B911B05DF804FBFFF7CEFFFFF7CCFFAE
:1010D00008B501F04BFCFFF7C9FF00F063F800F022
:1010E000AFF800F0D7F800F04FF900F04BFA00F03D
:1010F000F3F9234B1B680021986804F035FB0A20A4
:1011000004F0C2FA03F0D8FC80221E491E4803F006
:10111000FDFB80221D491E4803F058FA03F0EEFB48
:1011200003F0F2FE03F095FD02231A4A002108465F
:1011300003F006FD03F0E8FD01F036FC164B1B68DA
:10114000C01A642812D801F02FFC144B1B68C01A77
:10115000B0F57A7FF0D901F027FC104B186001231D
:101160000F4A0321002003F0EBFCE5E701F01CFC33
:10117000094B186003F070FB022003F07DFCE2E7EE
:101180002C0000209C0A0020800A0020000A002079
:10119000CC0C002080BC0008FC090020F8090020CD
:1011A000180D002070B588B00024049405940694AE
:1011B0000794214B9A6942F020029A619A6902F0E1
:1011C00020020192019A9A6942F004029A619A6996
:1011D00002F004020292029A9A6942F008029A61AD
:1011E0009B6903F008030393039B144D012240F60F
:1011F0000441284602F03DF822464FF4407128464B
:1012000002F037F840F60443049301230593069453
:101210000226079604A9284601F012FF4FF44073F6
:101220000493112305930694079604A9284601F018
:1012300007FF08B070BD00BF00100240000C014065
:1012400000B583B0124B5A6942F001025A615B69E2
:1012500003F001030193019B002211460E2002F0CE
:10126000C3F90E2002F0F8F9002211460F2002F017
:10127000BBF90F2002F0F0F900221146102002F015
:10128000B3F9102002F0E8F903B05DF804FB00BFE9
:101290000010024008B50B480B4B03600B4B43603A
:1012A00000238360C3604FF4804202614361836125
:1012B000C361036200F03EFC00B908BDFFF7D4FE35
:1012C000FBE700BF600B002000540040801A0600BE
:1012D00030B587B00023029303930493059302680B
:1012E000244B9A4201D007B030BD0446224DAB6971
:1012F00043F00803AB61AB6903F008030093009B64
:10130000C0230293122303930323059302A91B48CE
:1013100001F096FEEB6943F40013EB61EB6903F413
:1013200000130193019B1648164B03601023436082
:10133000002383608022C260036143618361C361D3
:1013400001F0BCFF98B90E4B63635C62002211464A
:101350001F2002F049F91F2002F07EF900221146F9
:10136000202002F041F9202002F076F9BBE7FFF7D8
:101370007BFEE8E70054004000100240000C0140F2
:101380001C0B00206C00024000B587B000230293C4
:10139000039304930593009301931648164A026041
:1013A0004722426083604FF6FF72C260036143616F
:1013B0008023836102F054FB90B94FF48053029371
:1013C00002A90C4802F04AFC68B90023009301937B
:1013D0006946084802F02CFD40B907B05DF804FBEF
:1013E000FFF742FEE9E7FFF73FFEEEE7FFF73CFEBF
:1013F000F3E700BFB40B0020002C014000B583B020
:101400000368204A934205D0B3F1804F2DD003B03A
:101410005DF804FB1C4B9A6942F400629A619B6977
:1014200003F400630093009B00221146182002F091
:10143000DBF8182002F010F900221146192002F002
:10144000D3F8192002F008F9002211461A2002F000
:10145000CBF81A2002F000F9002211461B2002F0FE
:10146000C3F81B2002F0F8F8D1E703F50433DA697A
:1014700042F00102DA61DB6903F001030193019B91
:10148000C5E700BF002C01400010024000B587B046
:10149000002302930393049305930368B3F1804FF1
:1014A00002D007B05DF804FB03F504339A6942F0FB
:1014B00004029A619B6903F004030193019B0123D9
:1014C000029302230393059302A9024801F0B8FD99
:1014D000E7E700BF0008014000B58FB000230A9382
:1014E0000B930C930D930893099301930293039329
:1014F000049305930693079321484FF080420260BE
:10150000436083604FF6FF72C26003618023836192
:1015100002F0A6FA20BB4FF480530A930AA9184898
:1015200002F09CFBF8B9164802F0C6FAF0B90023A5
:101530000893099308A9124802F07AFCC8B96023FD
:101540000193002202920392059201A90C4802F035
:1015500011FB88B90A48FFF799FF0FB05DF804FB4B
:10156000FFF782FDD7E7FFF77FFDDCE7FFF77CFDA4
:10157000DDE7FFF779FDE2E7FFF776FDEAE700BF79
:10158000FC0B002008B50A480A4B03604FF4E13316
:10159000436000238360C36003610C224261836166
:1015A000C36102F04FFD00B908BDFFF75DFDFBE729
:1015B000CC0C00200038014070B586B000230293A7
:1015C0000393049305930268314B9A4201D006B00D
:1015D00070BD044603F558439A6942F480429A610B
:1015E0009A6902F480420092009A9A6942F00402D9
:1015F0009A619B6903F004030193019B4FF400730C
:1016000002930223039303230593224E02A930463B
:1016100001F016FD4FF480630293002503950495B5
:1016200002A9304601F00CFD1B481C4B03604560CD
:1016300085608023C3600561456120238361C561A6
:1016400001F03CFEF0B9144BA3635C621448154BE7
:10165000036010234360002383608022C260036123
:1016600043618361C36101F029FE70B90C4B636370
:101670005C6200221146252001F0B6FF252001F012
:10168000EBFFA4E7FFF7F0FCDDE7FFF7EDFCEDE78C
:101690000038014000080140440C0020580002407E
:1016A000880C002044000240FEE7FEE7FEE7FEE76C
:1016B000FEE770477047704708B501F069F908BD4B
:1016C00008B5024801F0D8FE08BD00BF880C002014
:1016D00008B5024801F0D0FE08BD00BF440C002050
:1016E00008B5024801F0C8FE08BD00BF1C0B002071
:1016F00008B5024802F0BDF808BD00BFB40B0020D9
:1017000008B5024802F0B5F808BD00BFB40B0020D0
:1017100008B5024802F0ADF808BD00BFB40B0020C8
:1017200008B5024802F0A5F808BD00BFB40B0020C0
:1017300008B5024800F0BCFF08BD00BF600B0020E8
:1017400008B5024801F084F808BD00BF600B002016
:1017500008B5024802F0C0FD08BD00BFCC0C002057
:1017600082B00E4B9A6942F001029A619A6902F0C6
:1017700001020092009ADA6942F08052DA61DB6974
:1017800003F080530193019B054A536823F0E06303
:1017900043F00073536002B0704700BF0010024076
:1017A0000000014090F83E30DBB2402B10D00369BE
:1017B000B3F5804F1BD0036D002B39D1436CC3F3BD
:1017C000C813026803F0060343F0F0031361704787
:1017D000036D2BB9436C026803F0FE03136170477D
:1017E000436C026843F00103DBB21361704790F869
:1017F0003D30DBB2212B0FD0436C026843F0010374
:10180000DBB21361436B6BB19B6A5BB102685368D7
:1018100043F4006353607047436C026803F0FE03B7
:101820001361EFE7836B33B19B6A002BEED102E0CB
:10183000036D012B00D07047436CC3F3C8130268DB
:1018400003F0060343F0F1031361F4E7436C02680D
:10185000DBB21361436B3BB19B6A2BB102685368E7
:1018600043F4006353607047836B002BFBD09B6A8B
:10187000002BF3D1F7E710B48DB090F83E30DAB218
:10188000C16A046B90F83D30DBB2222B0AD00023F2
:101890000B9303685A690B929B690B930B9B0DB0DA
:1018A00010BC7047036D0BB9402A17D0036D1BB9EC
:1018B0000369B3F5404F19D0438D9BB2002B25D15E
:1018C000039303685A6903929A690392039A1A6808
:1018D00042F400721A6000230365E0E70193036895
:1018E0005A6901929B690193019BD8E700230293F7
:1018F00003685A6902929A690292029A1A6842F43B
:1019000080721A60036D01330365C8E7438D9BB293
:10191000012B25D0438D9BB2022B7BD0026813682C
:1019200043F48063136003685A6812F4006F0ED0AA
:1019300011F5803F07D0012905D0082903D01029CF
:1019400001D0202903D15A6842F480525A60002302
:101950000A9303685A690A929B690A930A9BBAE739
:1019600011F5803F11D0082934D0202932D0122C13
:101970002ED0042940D002293ED010293CD0026844
:10198000136823F4806313603BE00268136823F458
:101990008063136003685A6812F4006F0CD01A68F1
:1019A00022F480621A600023049303685A69049247
:1019B0009B690493049B8EE7002205925A69059265
:1019C0009A690592059A1A6842F400721A6082E7D1
:1019D0000129CED00268136823F4806313600023CA
:1019E000079303685A6907929A690792079A1A68D7
:1019F00042F400721A606EE70268136843F4806371
:101A000013600023069303685A6906929B69069344
:101A1000069B60E7042915D0022913D0102911D0A4
:101A20000268136843F4006313600023089303689B
:101A30005A6908929A690892089A1A6822F4806290
:101A40001A600CE00268136843F48063136000239B
:101A5000099303685A6909929B690993099B036872
:101A60005A6812F4006F3FF436AF11F5803F08D08A
:101A7000012906D0082904D0102902D020297FF49A
:101A80002AAF5A6842F480525A6024E7438D9BB2D1
:101A90005BB1426A036812781A61436A0133436298
:101AA000438D9BB2013B9BB243857047438D9BB2F4
:101AB0005BB103681A69436A1A70436A013343626F
:101AC000438D9BB2013B9BB24385704782B000239C
:101AD00001930E4B1B68DB080D4AA2FB03231B0A74
:101AE00003EB83030193019B013B0193019B33B102
:101AF00003681B6813F4007FF5D1002004E0036C39
:101B000043F020030364012002B070470800002066
:101B100089B5F814C36AB3F52A0F04D0C36AB3F1C8
:101B20002A4F03D070470123C36270470823C36262
:101B3000F8E70000002800F0CC8070B5044690F86B
:101B40003D30002B77D0242384F83D302268136881
:101B500023F0010313602268136843F40043136009
:101B60002268136823F40043136001F049FA6268A5
:101B70005A4B9A4264D85A4B98428CBF0023012397
:101B8000002B40F0A8805749A1FB00318B0C256841
:101B90006A6822F03F0242EA91426A6021680A6A5A
:101BA00022F03F0266684D4DAE424FD801331343D9
:101BB0000B622168CA6922F44F4222F0FF02666874
:101BC000464B9E424CD8431E7600B3FBF6F30133DE
:101BD00040F6FC70034278D0C3F30B031343CB6190
:101BE00021680B6823F0C003E269206A02431343B3
:101BF0000B6021688B6823F4034323F0FF03226901
:101C0000E068024313438B602168CB6823F0FF0335
:101C10006269A06902431343CB602268136843F0F2
:101C20000103136000202064202384F83D302063EA
:101C300084F83E0070BD80F83C30FFF749FB82E736
:101C4000294B98428CBF0023012399E74FF49675E6
:101C500005FB03F3254DA5FB03539B090133A6E7C1
:101C6000A368BBB9451E06EB460CB5FBFCF5013578
:101C7000C5F30B05B5FA85F56D0945BBC3B9013848
:101C800006EB4603B0FBF3F30133C3F30B0343F45A
:101C90000043A3E7451E06EB860C0CEB8C0CB5FB52
:101CA000FCF50135C5F30B05B5FA85F56D09E4E7DB
:101CB000013806EB860303EB8303B0FBF3F3013338
:101CC000C3F30B0343F4404388E7042386E701236F
:101CD00084E7012070470120ACE700BFA086010027
:101CE0007F841E0083DE1B43FF083D00D34D62103E
:101CF00070477047704708B590F83D30DAB2438DB1
:101D00009BB283B1416A036809781961436A013360
:101D10004362438D9BB2013B9BB24385438D9BB293
:101D20000BB9292A00D008BD0268536823F48063E8
:101D3000536021230363282380F83D30FFF7DAFF47
:101D4000F1E7704708B590F83D30DAB2438D9BB2A9
:101D500083B103681969436A1970436A01334362A6
:101D6000438D9BB2013B9BB24385438D9BB20BB924
:101D70002A2A00D008BD0268536823F480635360A8
:101D800022230363282380F83D30FFF7DAFFF1E7D1
:101D9000704700B583B090F83D3003F02803282B3E
:101DA0000CD000230193026851690191926901925C
:101DB000019A80F83C3003B05DF804FB0268536878
:101DC00023F48063536011F0040F0BD0002311F053
:101DD000800F09D18289002180F83C101946FFF755
:101DE000D7FFE8E70123F2E7028BF4E77047000032
:101DF00008B590F83D30DBB2C26A082A01D0202A2B
:101E000001D1282B06D0212B1ED003686FF48062ED
:101E10005A6108BD1A4BC3620268536823F4E06339
:101E2000536003686FF480625A610268136823F498
:101E30008063136000230363202280F83D2080F834
:101E40003E30FFF7D3FFE4E70D4BC362212303636A
:101E5000202380F83D30002380F83E30026853682C
:101E600023F4E063536003686FF480625A61026890
:101E7000136823F480631360FFF73CFFC9E700BFDA
:101E80000000FFFF704708B5C26A90F83D30DBB232
:101E9000212B00D008BD438D9BB263B1426A036819
:101EA00012781A61436A01334362438D9BB2013B4E
:101EB0009BB24385EEE7082A04D0202A02D012F50F
:101EC000803F19D10268536823F4E06353600268CD
:101ED000136843F40073136000230363202380F826
:101EE0003D3090F83E30DBB2402B15D0002380F817
:101EF0003E30FFF7FDFECDE70268536823F4E06350
:101F0000536011230363002380F83E30202380F8C0
:101F10003D30FFF7EDFEBDE7002380F83E30FFF7D0
:101F2000B1FFB7E708B590F83D30026D9AB9C36CC0
:101F3000012B08D0836CC3F3072302681361036D80
:101F40000133036508BD836C0268DBB21361036D66
:101F500002330365F6E7DBB2026D012A23D0026D7E
:101F6000022AEFD1222B26D0428D92B20AB1212B28
:101F70002AD0428D92B2002AE4D1212BE2D102680C
:101F8000536823F4E06353600268136843F40073FA
:101F9000136000230363202280F83D2080F83E3048
:101FA000FFF770FFCEE7836C0268DBB21361036D4D
:101FB00001330365C6E70268136843F48073136056
:101FC000036D01330365BDE7426A036812781A6145
:101FD000436A01334362438D9BB2013B9BB243850D
:101FE000B0E710B590F83D30DBB290F83E20D2B2A9
:101FF000C46A018D09B9212B04D0212B3BD0402A82
:1020000037D010BD082C04D0202C02D014F5803F0E
:1020100019D10268536823F4E063536002681368BF
:1020200043F40073136000230363202380F83D30E2
:1020300090F83E30DBB2402B15D0002380F83E30C4
:10204000FFF756FEDDE70268536823F4E063536050
:1020500011230363002380F83E30202380F83D30B5
:10206000FFF746FECDE7002380F83E30FFF70AFF7A
:10207000C7E7222BC5D1438D9BB22BB902685368A9
:1020800023F480635360BCE790F83E30DBB2402B12
:102090000CD0426A036812781A61436A01334362C2
:1020A000438D9BB2013B9BB24385AAE7FFF73AFF02
:1020B000A7E7704708B5C26A438D9BB2042B14D0C2
:1020C000438D9BB2032B22D0438D9BB2022B39D080
:1020D00003681A69436A1A70436A01334362438D85
:1020E0009BB2013B9BB2438510E00268536823F426
:1020F0008063536003681A69436A1A70436A013344
:102100004362438D9BB2013B9BB2438508BD01688E
:102110004B6823F480634B60042A06D0022A04D063
:102120000268136823F48063136003681A69436AC2
:102130001A70436A01334362438D9BB2013B9BB2E9
:102140004385E3E7012A0BD0102A09D0042A38D0AE
:10215000022A36D00268136843F40073136004E067
:102160000268136823F48063136003681A69436A82
:102170001A70426A531C4362438D9BB2013B9BB26F
:10218000438503681B695370436A01334362438D7F
:102190009BB2013B9BB243850268536823F44073B2
:1021A0005360202380F83D3090F83E30DBB2402B66
:1021B0000DD0002380F83E3012230363FFF799FD12
:1021C000A4E70268136843F480631360CDE700233B
:1021D00080F83E300363FFF76CFF97E7704790F895
:1021E0003D30DBB2222B00D0704710B50446438D42
:1021F0009BB2032B16D903681A69436A1A70436AA3
:1022000001334362438D9BB2013B9BB24385438DB7
:102210009BB2032B00D010BD0268536823F4806387
:102220005360F8E7C26A022AF5D0012BF3D8FFF712
:102230004DFC00282ED12268136823F480631360BC
:102240002268536823F4E063536023681A69636A61
:102250001A70636A01336362638D9BB2013B9BB268
:102260006385202384F83D3094F83E30DBB2402B68
:1022700008D0002384F83E30122323632046FFF762
:1022800038FDC8E7002384F83E3023632046FFF77B
:1022900010FFC0E72268536823F4E06353602368AB
:1022A0001A69636A1A70636A01336362638D9BB251
:1022B000013B9BB26385202384F83D30002384F8E2
:1022C0003E302046FFF78AFFA5E7704700B583B090
:1022D00000230193406A90F83D20D2B2324B1B6834
:1022E000DB083249A1FB03131B0A03EB8303C3EB97
:1022F000C3030193019B43B1019B013B019303681D
:102300001B6813F4007FF5D103E0036C43F0200356
:102310000364436B0BB100219962836B0BB1002105
:10232000996201680B6823F480630B600023438586
:10233000436B0BB100215963836B0BB100215963CF
:1023400001680B6823F001030B6090F83D30DBB2AD
:10235000602B0ED002F02802282A14D0202380F807
:102360003D30002380F83E30FFF738FF03B05DF8C2
:1023700004FB202380F83D30002380F83E300364C6
:10238000FFF7A3FFF2E70268136843F0010313604D
:102390000268136843F480631360002303632823F7
:1023A00080F83D30E0E700BF0800002089B5F81450
:1023B00010B5044690F83D30DBB290F83E20D2B222
:1023C000102A35D0402A33D003F02802282A37D0EB
:1023D0002268526812F4006F07D1602B05D02023C9
:1023E00084F83D30002384F83E30002323632368C3
:1023F0005A6812F4006F47D05A6822F400625A609B
:10240000636B93F82120012A20D0444A5A63606B01
:1024100000F0E6FF002849D02268136823F001038A
:102420001360202384F83D30606B436B98473DE098
:10243000222BC9D121680A6822F400620A60C3E72E
:1024400000232363282384F83D30D0E7A36B334A6D
:102450005A63A06B00F0C4FF40B323685A6912F0BE
:10246000400F05D01A69636A1A70636A01336362A8
:102470002268136823F001031360202384F83D30A1
:10248000A06B436B984711E094F83D20D2B2602ACC
:102490001FD05A6912F0400F05D01A69636A1A708A
:1024A000636A013363622046FFF798FE236C13F0E2
:1024B0000F0F04D02268536823F4E063536094F84C
:1024C0003D30DBB2226C12F0040F01D0282B18D063
:1024D00010BD202284F83D20002222645A6912F0A7
:1024E000400F05D01A69636A1A70636A0133636228
:1024F0002268136823F0010313602046FFF7E5FE0E
:10250000D4E7074BE36200232363202284F83D20B5
:1025100084F83E302046FFF769FCD9E7CD22000859
:102520000000FFFF30B583B0044690F83D50EDB297
:102530000268536823F4E063536000230193036847
:102540005A6901921A6842F001021A60019B0268FE
:10255000136823F48063136003685A6812F4006FF1
:1025600038D0222D21D02A2D1FD0426B12685268FC
:1025700092B24285428D92B21AB1026C42F00402CC
:1025800002645A6822F400625A60606B01F016F827
:1025900001281FD0636B444A5A63606B00F020FF30
:1025A000C0B1606B436B984714E0A26B126852682D
:1025B00092B26285628D92B21AB1226C42F004022C
:1025C00022645A6822F400625A60A06B00F0F6FFA1
:1025D000012842D1638D9BB233B323685A6912F04C
:1025E000040F0AD01A69636A1A70636A013363625E
:1025F000638D9BB2013B9BB2638523685A6912F0DD
:10260000400F0AD01A69636A1A70636A0133636201
:10261000638D9BB2013B9BB26385638D9BB21BB103
:10262000236C43F004032364236C13BB2A2D25D0B1
:1026300094F83D30DBB2282B29D0236B222B01D01C
:10264000222D19D100232363202284F83D2084F811
:102650003E302046FFF775FB0EE0A36B124A5A632B
:10266000A06B00F0BDFE0028B4D0A06B436B984770
:10267000B0E72046FFF79CFE03B030BD0023236384
:10268000282384F83D302046FFF75BFBD0E7074B5B
:10269000E36200232363202284F83D2084F83E3047
:1026A0002046FFF7A3FBE7E7CD2200080000FFFF6D
:1026B000F8B5044602685568C66A90F83E30DBB249
:1026C00090F83D10C8B2102B13D0402B11D0236CC2
:1026D000002B7AD05369002113F0020F78D015F443
:1026E000007F75D0236C03B191692046FFF751FB41
:1026F000F8BDD2F818C0516911F0010705D1B6F53F
:102700002A0FF5D0B6F12A4FF2D017B115F4007F99
:1027100029D111F0080F02D015F4007F2AD111F051
:10272000020F02D015F4007F28D11CF0040F31D025
:10273000526812F4006FDBD111F0800F05D015F450
:10274000806F02D011F0040F1CD011F0040FCFD015
:1027500015F4007FCCD0212818D0402BC8D12046BA
:10276000FFF7E0FBC4E72046FFF7D4F92046FFF768
:1027700019F8BDE72046FFF769F8B9E72046FFF7EB
:102780007AF8B5E72046FFF72CFCB1E72046FFF7C3
:102790007AFBADE7536813F4006FA9D111F0400F35
:1027A00005D015F4806F02D011F0040F09D011F09C
:1027B000040F9DD015F4007F9AD02046FFF77AFCD5
:1027C00096E72046FFF70BFD92E79169536983E78F
:1027D00013F0100F02D015F4007F18D121281AD061
:1027E000292818D013F0400F05D015F4806F02D0BF
:1027F00013F0040F28D013F0040F3FF479AF15F451
:10280000007F3FF475AF2046FFF750F970E7204690
:10281000FFF788FE6CE713F0800F05D015F4806F8A
:1028200002D013F0040F0BD013F0040F3FF460AF8D
:1028300015F4007F3FF45CAF2046FFF727F957E718
:102840002046FFF758FA53E72046FFF77BFA4FE799
:10285000F8B5044603685D695F6890F83E20D2B21F
:1028600015F4807F0CD017F4807F41D06FF4807115
:10287000596101680B6843F400430B60012600E0D6
:10288000002615F4007F08D017F4807F05D046F0AD
:10289000020623686FF40071596115F4806F19D036
:1028A00017F4807F16D0638D99B294F83D30DBB277
:1028B000206B202A1ED023686FF48061596146F096
:1028C0000406102A01D0402A04D12268136843F478
:1028D0000073136015F4006F08D017F4807F05D0E3
:1028E00046F0080623686FF400625A6186B9F8BDA5
:1028F0000026C6E70029DED1212B05D0292B03D0E5
:10290000282BD8D12128D6D12046FFF771FAE1E74C
:10291000236C1E4326642046FFF74AFDE7E70000CC
:1029200010B504460E4B18784FF47A73B3FBF0F3EE
:102930000C4A1068B0FBF3F000F09CFE68B90F2C55
:1029400001D901200AE0002221464FF0FF3000F0BB
:102950004BFE054B1C60002000E0012010BD00BFB5
:1029600000000020080000200400002008B5074AED
:10297000136843F010031360032000F023FE0F20C0
:10298000FFF7CEFFFEF7ECFE002008BD002002405E
:10299000034A1168034B1B780B441360704700BF58
:1029A000100D002000000020014B1868704700BF88
:1029B000100D002038B50446FFF7F6FF0546B4F1C8
:1029C000FF3F02D0044B1B781C44FFF7EDFF401B78
:1029D000A042FAD338BD00BF0000002082B0084BEF
:1029E0001B68084AA2FB03235B0A00FB03F3019365
:1029F00000BF019B5A1E0192002BF9D102B0704713
:102A000008000020D34D6210002800F0F18170B55D
:102A100082B00446036813F0010F2CD0994B5B6819
:102A200003F00C03042B1DD0964B5B6803F00C03E2
:102A3000082B12D06368B3F5803F41D0002B55D1ED
:102A400003F1804303F504331A6822F480321A60DC
:102A50001A6822F480221A6037E08A4B5B6813F40C
:102A6000803FE7D0874B1B6813F4003F03D06368B7
:102A7000002B00F0BF81236813F0020F75D0814B4B
:102A80005B6813F00C0F5FD07E4B5B6803F00C03A8
:102A9000082B54D02369002B00F08A807A4B012246
:102AA0001A60FFF781FF0546764B1B6813F0020F93
:102AB00075D1FFF779FF401B0228F5D903209EE16D
:102AC000704A136843F480331360636843B3FFF7BD
:102AD0006BFF05466B4B1B6813F4003FCBD1FFF730
:102AE00063FF401B6428F5D9032088E1B3F5A02FCC
:102AF00009D0644B1A6822F480321A601A6822F4F2
:102B000080221A60E1E703F18043A3F53C331A68A1
:102B100042F480221A601A6842F480321A60D4E7C4
:102B2000FFF742FF0546574B1B6813F4003FA2D046
:102B3000FFF73AFF401B6428F5D903205FE1514BB2
:102B40005B6813F4803FA5D14E4B1B6813F0020F56
:102B500003D02369012B40F04F814A4A136823F0C8
:102B6000F803616943EAC1031360236813F0080F97
:102B700033D0A369002B5CD0434B0122C3F88024DF
:102B8000FFF712FF05463F4B5B6A13F0020F21D19E
:102B9000FFF70AFF401B0228F5D903202FE1394A2D
:102BA000136823F0F803616943EAC1031360DCE7AB
:102BB000354B00221A60FFF7F7FE0546314B1B68C4
:102BC00013F0020FD1D0FFF7EFFE401B0228F5D91A
:102BD000032014E10120FFF701FF236813F0040F25
:102BE00000F09680274BDB6913F0805F34D1254BD2
:102BF000DA6942F08052DA61DB6903F080530193B5
:102C0000019B0125214B1B6813F4807F26D0E368CC
:102C1000012B3DD0002B53D103F1804303F5043346
:102C20001A6A22F001021A621A6A22F004021A6277
:102C300033E0154B0022C3F88024FFF7B5FE0546AC
:102C4000104B5B6A13F0020FC7D0FFF7ADFE401BBD
:102C50000228F5D90320D2E00025D3E70B4A1368F8
:102C600043F480731360FFF79FFE0646074B1B6813
:102C700013F4807FCBD1FFF797FE801B6428F5D932
:102C80000320BCE0001002400000424200700040FF
:102C90005F4A136A43F001031362E36833B3FFF73B
:102CA00083FE06465A4B1B6A13F0020F2FD1FFF723
:102CB0007BFE801B41F288339842F3D903209EE0CB
:102CC000052B09D0524B1A6A22F001021A621A6AC5
:102CD00022F004021A62E0E74D4B1A6A42F0040245
:102CE0001A621A6A42F001021A62D6E7FFF75CFE26
:102CF0000646474B1B6A13F0020F08D0FFF754FE3D
:102D0000801B41F288339842F3D9032077E0E5B97C
:102D1000E369002B72D03E4A526802F00C02082A86
:102D200056D0022B17D03B4B00221A66FFF73CFE11
:102D30000446374B1B6813F0007F47D0FFF734FE83
:102D4000001B0228F5D9032059E0314AD36923F04A
:102D50008053D361DCE72F4B00221A66FFF724FE75
:102D600005462B4B1B6813F0007F06D0FFF71CFEB7
:102D7000401B0228F5D9032041E0236AB3F5803FC8
:102D80001AD023494B6823F47413226A606A024301
:102D900013434B601F4B01221A66FFF705FE0446E2
:102DA0001B4B1B6813F0007F0ED1FFF7FDFD001BCE
:102DB0000228F5D9032022E0154A536823F4003392
:102DC000A1680B435360DCE7002018E0002016E008
:102DD000012B16D00E4B5B6803F48031226A9142BE
:102DE00011D103F47013626A93420ED1002006E001
:102DF00001207047012002E0012000E0002002B025
:102E000070BD0120FBE70120F9E70120F7E700BFD3
:102E1000001002400000424286B0174B0FCB0DF16C
:102E2000180C0CE90F0040F20123ADF80430134BED
:102E30005B6803F00C02082A02D0114806B0704704
:102E4000C3F3834218326A4412F8100C13F4803F23
:102E50000DD00A4B5B68C3F3404318336B4413F83F
:102E6000143C074A02FB00F0B0FBF3F0E6E7054B29
:102E700003FB00F0E2E700BF8CBC0008001002403A
:102E800000127A0000093D00002800F0A08070B513
:102E90000D460446524B1B6803F007038B420BD2CE
:102EA0004F4A136823F007030B431360136803F0C2
:102EB00007038B4240F08D80236813F0020F17D078
:102EC00013F0040F04D0474A536843F4E06353609F
:102ED000236813F0080F04D0424A536843F4605348
:102EE0005360404A536823F0F003A1680B435360DA
:102EF000236813F0010F31D06368012B20D0022B1F
:102F000025D0384A126812F0020F64D035494A6859
:102F100022F0030213434B60FFF746FD0646314B98
:102F20005B6803F00C036268B3EB820F16D0FFF707
:102F30003BFD801B41F288339842F0D9032045E0E5
:102F4000284A126812F4003FE0D101203EE0254AF1
:102F5000126812F0007FD9D1012037E0204B1B68A6
:102F600003F00703AB420AD91D4A136823F0070395
:102F70002B431360136803F00703AB422DD1236882
:102F800013F0040F06D0174A536823F4E063E16896
:102F90000B435360236813F0080F07D0114A53689E
:102FA00023F46053216943EAC1035360FFF734FF00
:102FB0000C4B5B68C3F303130B4AD35CD8400B4B39
:102FC00018600B4B1868FFF7ABFC002070BD0120A8
:102FD00070470120FAE70120F8E70120F6E700BF7B
:102FE0000020024000100240A0BC000808000020A1
:102FF00004000020014B1868704700BF0800002043
:1030000008B5FFF7F7FF044B5B68C3F30223034ADD
:10301000D35CD84008BD00BF00100240B0BC00081F
:1030200008B5FFF7E7FF044B5B68C3F3C223034A0D
:10303000D35CD84008BD00BF00100240B0BC0008FF
:1030400070B582B00024A446A6E0804DAA4210D0FC
:1030500007D97F4DAA420CD005F58035AA4208D089
:1030600013E0A5F58015AA4203D005F57025AA4204
:1030700007D18A68002A58D0012A51D04361082418
:1030800003E0A5F58015AA42F3D0BEF1FF0F4ED89C
:103090000646BEF1FF0F4CD84FEA8C0233680F256D
:1030A000954023EA050304FA02F2134333604B68A8
:1030B00013F0805F6ED0674B9A6942F001029A610B
:1030C0009B6903F001030193019B4FEA9C02951C4D
:1030D000614B53F825600CF003039D000F23AB40B8
:1030E00026EA03065D4B984229D003F58063984297
:1030F00000F08E8003F58063984200F08B8003F52A
:103100008063984219D004231AE0CC68BDE7CC68EC
:103110000434BAE7CC680834B7E7CC680C34B4E7B9
:1031200003610824B1E70024AFE70424ADE7061DDE
:10313000AFE7ACF108029200B0E7032300E0002300
:10314000AB4033430232444D45F822304B6813F410
:10315000803F61D0424A136843EA0E0313604B6814
:1031600013F4003F5ED03E4A536843EA0E035360B7
:103170004B6813F4801F5BD0394A936843EA0E030F
:1031800093604B6813F4001F58D0354AD36843EA64
:103190000E03D3600CF1010C0A6832FA0CF353D021
:1031A000012303FA0CF302EA030E33EA0202F1D11F
:1031B0004A68122A3FF649AF122A3FF666AF01A5C8
:1031C00055F822F0733000080B3100081531000863
:1031D000273100088B3000088B3000088B30000846
:1031E0008B3000088B3000088B3000088B300008D3
:1031F0008B3000088B3000088B3000088B300008C3
:103200008B3000088B3000080F3100081B3100089C
:10321000012395E7022393E7114A136823EA0E037B
:1032200013609CE70E4A536823EA0E0353609FE73E
:103230000B4A936823EA0E039360A2E7084AD36817
:1032400023EA0E03D360A5E702B070BD0000221090
:103250000000311000100240000001400008014051
:10326000000401408368194201D00120704700200A
:1032700070470AB101617047090401617047C36872
:1032800001EA030221EA030141EA024101617047B8
:1032900030B40124056CAC40C56B6C60046863609D
:1032A0004368102B05D0036899600368DA6030BC6E
:1032B000704703689A600368D960F8E760B310B498
:1032C00002460168154B0B441548A0FB03031B097C
:1032D0009B001364134BD363022382F821300868E8
:1032E00020F47F5020F03000536894682343D46862
:1032F0002343146923435469234394692343D469C2
:10330000234303430B6000209063012382F82130A4
:1033100082F8200010BC704701207047F8FFFDBF05
:10332000CDCCCCCC0000024038B5044690F820004B
:10333000012831D0012084F8200094F821000128D0
:1033400004D0002384F82030022038BD022084F805
:1033500021000020A0632568286820F00100286073
:103360002046FFF795FFE36A5BB12268136843F0DC
:103370000E0313602268136843F0010313600020FA
:10338000E3E72268136823F00403136022681368DC
:1033900043F00A031360EDE70220D6E790F82130EE
:1033A000022B06D004238363002380F82030012001
:1033B00070470268136823F00E03136002681368F5
:1033C00023F001031360036CC16B012202FA03F3C3
:1033D0004B6080F82120002380F820301846704789
:1033E00008B590F82130022B03D004238363012019
:1033F00008BD0268136823F00E03136002681368A7
:1034000023F0010313600368194A934214D0143265
:1034100093421FD0143293421ED0143293421ED0D6
:10342000143293421ED01432934202D04FF0807275
:1034300003E04FF4801200E001220E4B5A6001239A
:1034400080F82130002380F82030436B6BB198471F
:103450000020CDE71022F0E74FF48072EDE74FF443
:103460008052EAE74FF48032E7E70020C0E700BF70
:10347000080002400000024038B5C36B1A680468B7
:103480002568016C04238B40134235D015F0040FDE
:1034900032D0236813F0200F03D1236823F00403F4
:1034A00023600368434A934214D01432934218D0E5
:1034B0001432934217D01432934217D014329342ED
:1034C00017D01432934202D04FF0806203E04FF4E1
:1034D000800200E00422384B5A60C36A03B1984767
:1034E00038BD4022F7E74FF48062F4E74FF48042A2
:1034F000F1E74FF48022EEE702238B4013423CD0E9
:1035000015F0020F39D0236813F0200F06D123687D
:1035100023F00A032360012380F821300368254A41
:10352000934214D0143293421CD0143293421BD0D5
:10353000143293421BD0143293421BD01432934264
:1035400002D04FF0007203E04FF4001200E00222BC
:10355000194B5A60002380F82030836A002BBFD0BB
:103560009847BDE72022F3E74FF40072F0E74FF4ED
:103570000052EDE74FF40032EAE7082303FA01F1C5
:103580001142ADD015F0080FAAD0236823F00E0326
:103590002360026CC16B012303FA02F24A60836369
:1035A00080F82130002380F82030036B002B97D067
:1035B000984795E7080002400000024090F821007B
:1035C00070470000074AD36823F4E0631B041B0C18
:1035D000000200F4E060034343F0BF6343F40033B0
:1035E000D360704700ED00E000B5194BDB68C3F312
:1035F0000223C3F1070CBCF1040F28BF4FF0040CE9
:1036000003F1040EBEF1060F18D9033B4FF0FF3E45
:103610000EFA0CFC21EA0C0199400EFA03F322EA9F
:103620000303194300280BDB0901C9B200F1604014
:1036300000F5614080F800135DF804FB0023E5E726
:1036400000F00F000901C9B2024B1954F4E700BFA2
:1036500000ED00E014ED00E0002807DB00F01F02A1
:10366000400901239340024A42F82030704700BFCE
:1036700000E100E00138B0F1807F0BD24FF0E02391
:103680005861054AF02182F8231000209861072232
:103690001A6170470120704700ED00E070B4036AC2
:1036A00023F001030362036A4668826922F0730211
:1036B0000C6844EA020523F002028B6813430D4CA8
:1036C000A04209D00B4CA0420DD0466085614A68EB
:1036D0004263036270BC704723F00803CA68134357
:1036E00023F00403EEE726F440764A6932438E69FC
:1036F0001643EAE7002C014030B4036A23F48073D8
:103700000362036A4568C26922F073020C682243AF
:1037100023F400738C6843EA04230F4CA04209D0C1
:103720000D4CA0420ED04560C2614A68C26303627C
:1037300030BC704723F40063CC6843EA042323F4CD
:103740008063EDE725F440554C6945EA04158C6922
:1037500045EA0415E7E700BF002C014030B4036AD6
:1037600023F480530362036A4468C26922F4E64288
:103770000D6842EA052223F400538D6843EA0533BD
:10378000074DA84206D04460C2614A6802640362E1
:1037900030BC704724F480444D6944EA8514F2E754
:1037A000002C014010B4036A046A24F0010404628E
:1037B000846924F0F00C4CEA021223F00A030B4354
:1037C0008261036210BC704710B4046A24F01004D4
:1037D00004628469036A24F4704C4CEA023223F0D8
:1037E000A00343EA01138261036210BC704783683F
:1037F00023F070030B4343F007038360704700001E
:1038000090F83D30DBB2012B27D1022380F83D3008
:103810000268D36843F00103D3600368114A9342FE
:1038200010D0B3F1804F0DD0A2F59432934209D05D
:1038300002F58062934205D01A6842F001021A60D4
:10384000002070479A6802F00702062A07D01A681B
:1038500042F001021A6000207047012070470020EA
:10386000704700BF002C0140704770477047704799
:10387000704710B5044603681A6912F0020F11D0A0
:10388000DA6812F0020F0DD06FF002021A61012304
:10389000037703689B6913F0030F70D0FFF7E6FF0F
:1038A0000023237723681A6912F0040F12D0DA6814
:1038B00012F0040F0ED06FF004021A610223237776
:1038C00023689B6913F4407F5FD02046FFF7CEFF4B
:1038D0000023237723681A6912F0080F12D0DA68E0
:1038E00012F0080F0ED06FF008021A61042323773C
:1038F0002368DB6913F0030F4ED02046FFF7B6FFB5
:103900000023237723681A6912F0100F12D0DA68A7
:1039100012F0100F0ED06FF010021A6108232377F7
:103920002368DB6913F4407F3DD02046FFF79EFFFC
:103930000023237723681A6912F0010F03D0DA6895
:1039400012F0010F36D123681A6912F0800F03D0EC
:10395000DA6812F0800F34D123681A6912F0400F30
:1039600003D0DA6812F0400F32D123681A6912F0DE
:10397000200F03D0DA6812F0200F30D110BDFFF70E
:1039800074FF2046FFF773FF8AE72046FFF76DFFBD
:103990002046FFF76CFF9BE72046FFF766FF2046B7
:1039A000FFF765FFACE72046FFF75FFF2046FFF714
:1039B0005EFFBDE76FF001021A61204600F090FF44
:1039C000C1E76FF080021A61204600F068FAC3E791
:1039D0006FF040021A612046FFF74AFFC5E76FF01B
:1039E00020021A61204600F059FAC7E703681B4A13
:1039F00090420AD0B0F1804F07D0A2F594329042A5
:103A000003D002F58062904203D123F070034A682C
:103A10001343124A90420AD0B0F1804F07D0A2F56A
:103A20009432904203D002F58062904203D123F495
:103A30004073CA68134323F080034A691343036049
:103A40008B68C3620B688362044B984202D00123E7
:103A5000436170470B690363F9E700BF002C014025
:103A600040B310B5044690F83D30F3B1022384F81A
:103A70003D30214651F8040BFFF7B8FF012384F8CD
:103A8000463084F83E3084F83F3084F8403084F883
:103A9000413084F8423084F8433084F8443084F86C
:103AA000453084F83D30002010BD80F83C30FDF7F3
:103AB000A5FCDBE70120704740B310B5044690F841
:103AC0003D30F3B1022384F83D30214651F8040B18
:103AD000FFF78CFF012384F8463084F83E3084F8E9
:103AE0003F3084F8403084F8413084F8423084F824
:103AF000433084F8443084F8453084F83D30002069
:103B000010BD80F83C30FFF7AFFEDBE701207047C7
:103B100030B4036A23F010030362036A44688269C5
:103B200022F4E6420D6842EA052223F020038D6864
:103B300043EA05130E4DA84209D00D4DA8420ED000
:103B4000446082614A688263036230BC704723F03C
:103B50008003CD6843EA051323F04003EDE724F426
:103B600040644D6944EA85048D6944EA8504E7E7C9
:103B7000002C014038B590F83C30012B60D0044651
:103B80000D46012380F83C300C2A1AD8DFE802F0F9
:103B9000071919191D191919311919194400006843
:103BA000FFF77CFD2268936943F008039361226864
:103BB000936923F0040393612268936929690B4395
:103BC0009361002084F83C0038BD0068FFF7A0FF37
:103BD0002268936943F4006393612268936923F434
:103BE0008063936122689369296943EA01239361A1
:103BF000E7E70068FFF780FD2268D36943F0080318
:103C0000D3612268D36923F00403D3612268D369A6
:103C100029690B43D361D4E70068FFF79FFD226851
:103C2000D36943F40063D3612268D36923F48063CA
:103C3000D3612268D369296943EA0123D361C0E7CC
:103C40000220C1E710B4846824F47F4C42EA0322C6
:103C50000A4342EA0C02826010BC704790F83C3084
:103C6000012B66D010B50446012380F83C300223B6
:103C700080F83D300268936823F47F4323F0770394
:103C800093600B68602B40D022D8402B47D00BD9D3
:103C9000502B0ED1CA6849680068FFF783FD502198
:103CA0002068FFF7A4FD04E0202B0CD008D9302BAE
:103CB00009D0012384F83D30002084F83C0010BD79
:103CC0000BB1102BF5D119462068FFF790FDF0E7F6
:103CD000702B0ED0B3F5005FEBD1CB684A688968D2
:103CE0000068FFF7AFFF2268936843F48043936056
:103CF000DFE7CB684A6889680068FFF7A3FF22689E
:103D0000936843F077039360D3E7CA684968006813
:103D1000FFF75AFD60212068FFF769FDC9E7CA680F
:103D200049680068FFF73EFD40212068FFF75FFD0E
:103D3000BFE70220704701F01F01012303FA01FCD5
:103D4000036A23EA0C030362036A02FA01F10B43DC
:103D50000362704710B50446084651BB94F83E30E4
:103D6000DBB2013B18BF0123002B5BD1002839D106
:103D7000022384F83E30012201462068FFF7DBFF72
:103D800023682A4A93423DD02368284A93423ED072
:103D9000B3F1804F3BD0A2F59432934237D002F575
:103DA0008062934233D01A6842F001021A60002008
:103DB00039E0042908D008290DD094F84130DBB24D
:103DC000013B18BF0123CFE794F83F30DBB2013B42
:103DD00018BF0123C8E794F84030DBB2013B18BF9D
:103DE0000123C1E7042805D0082807D0022384F85E
:103DF0004130C0E7022384F83F30BCE7022384F857
:103E00004030B8E75A6C42F400425A64BCE79A6802
:103E100002F00702062A07D01A6842F001021A606F
:103E2000002000E0012010BD0020FCE7002C014034
:103E300090F83C30012B2CD010B4012380F83C309A
:103E4000022380F83D3003685A689C6822F0700CA9
:103E50000A6842EA0C025A6003680F4A93420AD089
:103E6000B3F1804F07D0A2F59432934203D002F50C
:103E70008062934204D124F080044A6814439C6019
:103E8000012380F83D30002380F83C30184610BCF8
:103E900070470220704700BF002C014070477047F8
:103EA0000268D36823F0C003D360202380F83D303C
:103EB00070470268D36823F49073D3600268536933
:103EC00023F001035361036B012B05D0202380F8FD
:103ED0003E300023036370470268D36823F0100369
:103EE000D360F3E790F83D30DBB2212B01D0022004
:103EF00070478368B3F5805F17D0036A5A1C02626B
:103F00001A7803685A60C38C9BB2013B9BB2C3848E
:103F10004BB90268D36823F08003D3600268D3688A
:103F200043F04003D360002070470369002BE4D1C5
:103F3000036A1B880268C3F308035360036A0233F1
:103F40000362E0E710B504460268136923F44053A6
:103F5000C1680B43136183680269134342691A43C2
:103F60000168CB6823F4B05323F00C031343CB60F8
:103F70000268536923F4407381690B4353610268FB
:103F8000134B9A4220D0FFF73BF8024602EB820225
:103F900002EB820263689B00B2FBF3F20D48A0FBC8
:103FA00002314909642303FB11231B013233A0FBB7
:103FB00003235B0903F0F00202EB011203F00F038D
:103FC000216813448B6010BDFFF72AF80246DDE735
:103FD000003801401F85EB512DE9F84305460F4697
:103FE00016469946DDF820802C68246837EA0403D9
:103FF0000CBF4FF0010C4FF0000CB4451FD1B8F1CD
:10400000FF3FF1D0B8F1000F05D0FEF7CDFCA0EBDB
:1040100009004045E8D92A68D36823F4D073D360F7
:104020002A68536923F001035361202385F83D304A
:1040300085F83E30002385F83C30032000E0002066
:10404000BDE8F88358B310B5044690F83D300BB383
:10405000242384F83D302268D36823F40053D360CE
:104060002046FFF76FFF2268136923F49043136122
:104070002268536923F02A0353612268D36843F40A
:104080000053D36000202064202384F83D3084F85E
:104090003E3010BD80F83C30FDF78EFAD8E70120A5
:1040A00070472DE9F04182B01E4690F83D30DBB2FA
:1040B000202B54D104460D469046002953D0002AA7
:1040C00053D090F83C30012B51D0012380F83C3084
:1040D00000230364212380F83D30FEF765FC07468A
:1040E000A4F82480A4F82680A368B3F5805F05D0E7
:1040F0004FF00008002384F83C3012E0236913B12C
:104100004FF00008F6E7A8460025F3E738F8023B31
:104110002268C3F308035360E28C92B2013A92B270
:10412000E284E38C9BB273B100963B46002280216F
:104130002046FFF751FFE0B9002DE7D015F8012B1D
:1041400023685A60E8E700963B460022402120465B
:10415000FFF742FF78B9202384F83D3000E00220C9
:1041600002B0BDE8F0810120FAE70120F8E7022063
:10417000F6E70320F4E70320F2E7704708B501688B
:10418000CA6822F04002CA60202280F83D20FFF772
:10419000F4FF002008BD70477047704710B5446AAF
:1041A00023685A6994F83D30DBB2212B10D0236884
:1041B0005A6902F0400294F83E30DBB2222B11D053
:1041C000236C43F0100323642046FFF7E6FF10BD85
:1041D00002F08002002AEAD00023E3842046FFF7A1
:1041E0005FFEE4E7002AEBD00023E3852046FFF7DB
:1041F00060FEE5E708B5406A0023C385C384FFF786
:10420000CCFF08BD90F83E30DBB2222B60D1836832
:10421000B3F5805F46D0826AB3F5805F04D0002B8F
:104220004DD10369002B4AD103685B681370836A20
:1042300001338362C38D9BB2013B9BB2C385002BCC
:1042400048D100B583B00268D36823F02003D3605F
:104250000268D36823F48073D3600268536923F043
:1042600001035361202380F83E30036B012B2CD1D6
:10427000002303630268D36823F01003D36003684C
:104280001A6812F0100F06D0002201921A680192EB
:104290005B680193019B818DFCF7C6FE002003B093
:1042A0005DF804FB0269002AB5D1826A03685B6885
:1042B000C3F308031380836A02338362BAE7036897
:1042C0005B6803F07F031370B1E7FFF764FFE5E776
:1042D000022070470020704730B583B00446026862
:1042E0001368D068516913F00F0505D113F0200F42
:1042F00002D010F0200F19D12DB111F0010119D108
:1043000010F4907F16D1216B012975D013F0800F26
:1043100003D010F0800F40F0D78013F0400F03D08F
:1043200010F0400F40F0D48003B030BD2046FFF7BE
:1043300069FFF9E713F0010F06D010F4807F03D076
:10434000226C42F00102226413F0040F04D019B170
:10435000226C42F00202226413F0020F04D019B161
:10436000226C42F00402226413F0080F07D010F010
:10437000200F00D119B1226C42F008022264226C95
:10438000002AD1D013F0200F02D010F0200F21D13D
:1043900023685B6903F04003226C12F0080F00D120
:1043A00023B32046FFF785FD23685A6912F0400FBA
:1043B00018D05A6922F040025A61A36B73B1464A81
:1043C0005A63A06BFFF70CF80028ADD0A06B436BCD
:1043D0009847A9E72046FFF715FFD9E72046FFF7E2
:1043E000DCFEA1E72046FFF7D8FE9DE72046FFF759
:1043F000D4FE0023236497E713F0100F86D010F04B
:10440000100F83D000230193136801935368019325
:10441000019B536913F0400F32D0A16B0B685B68AE
:104420009BB2002B80D0A08D98427FF67DAFE385B4
:104430008B69202B08D1A18DE38D9BB2C91A89B25B
:104440002046FCF7F1FD6FE7D36823F48073D36057
:104450002268536923F0010353612268536923F0F2
:1044600040035361202384F83E30002323632268F5
:10447000D36823F01003D360A06BFEF78FFFDAE759
:10448000A18DE38D9BB2C91A89B2E38D9BB2002B3B
:104490003FF44AAF00293FF447AFD36823F4907349
:1044A000D3602268536923F001035361202384F809
:1044B0003E30002323632268D36823F01003D360C7
:1044C0002046FCF7B1FD2FE72046FFF70BFD2BE759
:1044D0002046FFF753FE27E7F541000808B5406A7C
:1044E000036B012B02D0FFF757FE08BD818D4908F1
:1044F000FCF79AFDF9E708B50346406A1B681B689C
:1045000013F0200F16D10023C3850268D36823F46B
:104510008073D3600268536923F00103536102681A
:10452000536923F040035361202380F83E30036B2E
:10453000012B05D0036B012B08D0FFF72CFE08BD23
:104540000268D36823F01003D360F3E7818DFCF792
:104550006BFDF4E730B583B0044613468162828573
:1045600000250564222280F83E20826B1448906268
:10457000A26B1448D062A26B13481063A26B556300
:1045800020680A46011DA06BFEF7CEFE0195236848
:104590001A6801925A680192019A84F83C50DA68CC
:1045A00042F48072DA602268536943F00103536178
:1045B0002268536943F040035361284603B030BD7D
:1045C000F7440008DD4400089D41000890F83E30A3
:1045D000DBB2202B21D110B582B00446F9B102B371
:1045E00090F83C30012B1FD0012380F83C3003634E
:1045F000FFF7B0FFB0B9236B012B01D0012011E010
:104600000023019323681A6801925A680192019A63
:10461000DA6842F01002DA6004E0022070470120FC
:1046200000E0012002B010BD0220FBE7704700004F
:1046300070B5A0B005460E46002400947C222146A9
:1046400001A800F0AFFF02E004350134E4B2B44247
:104650000ED22968684601F067F9731E9C42F3DAAE
:10466000684601F0DFF91A4B1B882DF80030EBE7A4
:10467000022E09D81749684601F05EFB40B1164882
:1046800001F058F820B070BD144801F053F8F9E774
:104690001349684601F050FB38B10121084600F08B
:1046A000C7F9104801F046F8ECE70F49684601F0F9
:1046B00043FB38B10021012000F0BAF90B4801F0AA
:1046C00039F8DFE769460A4800F0CAFFDAE700BFB9
:1046D000B8BC0008CCBC0008D0BC0008BCBC0008BA
:1046E000F0BC0008F4BC000800BD000804BD0008D0
:1046F00010BD000838B5032915D80446012916D97C
:10470000456817492846FBF799FDA0B11549284689
:10471000FBF794FDB8B114492846FBF78FFDD0B9DB
:1047200000F046FB0EE0114801F004F80AE01048E2
:1047300001F000F806E0A06800F058FC00F0FEFA76
:1047400000F036FB38BDA06800F050FC00F01CFB08
:1047500000F02EFBF6E72946064800F081FFF1E75E
:1047600034BD00083CBD0008CCBC0008BCBC00083F
:1047700024BD000844BD000838B5032917D80446F5
:10478000022918D9456815492846FBF757FDB0B1ED
:1047900013492846FBF752FDD8B9124DA1682846A7
:1047A00001F0E2F82946104800F05AFF38BD0F48E2
:1047B00000F0C0FFFAE70E4800F0BCFFF6E7A06883
:1047C00000F014FC01460B4B18600B4800F048FF4A
:1047D000ECE72946094800F043FFE7E760BD000821
:1047E00090BD0008180D002098BD0008BCBC000852
:1047F00024BD0008140D002068BD000844BD000859
:1048000010B5002406E0064B53F83410054800F0BC
:1048100027FF0134032CF6DD0A2000F035FF10BD20
:104820000C000020C0BD0008F8B50F4616461D4616
:1048300001F036FB4FF0000C09E00CF10104E4B28A
:1048400046F82C003946002001F02AFBA44608B1A6
:10485000AC45F2D36046F8BD70B5B4B000211491F8
:104860007C2215A800F09EFE194800F0DAF808B185
:1048700034B070BD164C204600F0D8F8024614A99A
:10488000204600F08DF814236A46124914A8FFF759
:10489000CBFF0646002408E00F4B03EBC40463681B
:1048A000314668469847E3E70134032CE0DC009D7D
:1048B000094B53F834102846FBF7C0FC0028EBD016
:1048C000022CF1DD2946054800F0CAFEECE700BFE6
:1048D000800A0020B8BC00080C000020C4BD0008FD
:1048E000044B834200D07047034A136801331360BE
:1048F000F9E700BFB40B0020980D002008B502486E
:10490000FEF77EFF08BD00BFB40B00200346016028
:10491000501E084458609A600020D860196159619F
:10492000986170472DE9F041002936D004460F46C2
:104930008568F5B172B68568F5B143694668B342DA
:1049400001D9036843619542A8BF15466069361ACC
:104950000136B54212DC2A463946FBF7F9FB63699A
:104960002B446361A3685B1BA360E3682B44E36093
:1049700062B62846BDE8F08162B6FAE7A5EB060804
:1049800032463946FBF7E4FB4246B9192068FBF78B
:10499000DFFB236843446361E4E74FF0FF35E8E75A
:1049A0002DE9F041002939D004460F46C5680DB302
:1049B00072B6C5680DB303694668B34201D903688E
:1049C00003619542A8BF15462169761A0136B542A2
:1049D00015DC2A463846FBF7BBFB23692B442361D1
:1049E000A3682B44A360E3685B1BE36062B62846C0
:1049F000BDE8F08100230B70F9E762B6F7E7A5EB9D
:104A0000060832463846FBF7A3FB42462168B81930
:104A1000FBF79EFB236843442361E1E74FF0FF353A
:104A2000E5E7C068B0FA80F040097047C068704799
:104A300008B5431EDBB2022B07D8012905D802288E
:104A40000AD003280FD0012800D008BD0A4604214F
:104A50000848FEF70EFCF8E70A464FF48061054867
:104A6000FEF707FCF1E70A464FF400610148FEF744
:104A700000FCEAE7000C014008B5431EDBB2022B44
:104A800005D8022809D003280DD0012800D008BD80
:104A900004210848FEF7F3FBF9E74FF4806105486D
:104AA000FEF7EDFBF3E74FF400610248FEF7E7FB8A
:104AB000EDE700BF000C014010B5094C00220421B5
:104AC0002046FEF7D6FB00224FF480612046FEF719
:104AD000D0FB00224FF400612046FEF7CAFB10BD58
:104AE000000C014000B583B08DF804008DF805106E
:104AF000022201A9782000F00FFA03B05DF804FB50
:104B000008B501460020FFF7EDFF08BD08B50146D6
:104B10004020FFF7E7FF08BD10B50446A1F15000A3
:104B2000C0B2FFF7EDFF200940F01000FFF7E8FFEB
:104B300004F00E0040F00100FFF7E2FF10BD00009E
:104B40002DE9F84306460F469046012B26D0022B4E
:104B50005AD0BDE8F88305EB45032D4A02EB430329
:104B6000185DFFF7D3FF0134E4B2052CF3D9063604
:104B7000F6B209F101095FFA89F918F80950002D18
:104B8000E7D0223DEDB2782E02D90137FFB20026E0
:104B900039463046FFF7C0FF0024E6E74FF0000932
:104BA000EBE704EB05131B4AD05CFFF7AFFF0134C2
:104BB000E4B2072CF5D9791CC9B23046FFF7ACFF37
:104BC000002408E004EB05130833124AD05CFFF719
:104BD0009DFF0134E4B2072CF4D90836F6B209F18E
:104BE00001095FFA89F918F80950002DB1D0203D6C
:104BF000EDB2802E02D90137FFB200263946304689
:104C0000FFF78AFF0024D4E74FF00009EBE700BF6D
:104C1000FCBD000818C0000838B5002509E00020D8
:104C2000FFF774FF0134E4B214F0800FF7D00135C0
:104C3000EDB2072D0CD8A5F15000C0B2FFF760FF10
:104C40000020FFF75DFF1020FFF75AFF0024EBE77D
:104C500038BD08B56420FDF7ADFEAE20FFF750FF6C
:104C60002020FFF74DFF1020FFF74AFFB020FFF78D
:104C700047FFC820FFF744FF0020FFF741FF102047
:104C8000FFF73EFF4020FFF73BFF8120FFF738FF93
:104C9000FF20FFF735FFA120FFF732FFA620FFF727
:104CA0002FFFA820FFF72CFF3F20FFF729FFA420AC
:104CB000FFF726FFD320FFF723FF0020FFF720FF99
:104CC000D520FFF71DFFF020FFF71AFFD920FFF7CF
:104CD00017FF2220FFF714FFDA20FFF711FF122041
:104CE000FFF70EFFDB20FFF70BFF2020FFF708FF89
:104CF0008D20FFF705FF1420FFF702FFAF20FFF71D
:104D0000FFFEFFF789FF08BD08B50A4B64221A6051
:104D100032225A604FF080430A229A624FF6AD72F7
:104D2000DA6247F6D6725A6300210348FFF712F899
:104D300008BD00BF9C0D0020FC0B00200F4B18602D
:104D40000F4B93FBF0F00346002203E0931C90FB13
:104D5000F3F30132B3F5803FF8DA581E4FF080418B
:104D60008A62C862054A526802FB03F3054A82FB65
:104D70000302DB17C3EB62134B6370479C0D0020EB
:104D800000A24A041F85EB51074B58604FF0804248
:104D9000D36A03FB0000054B83FB0013C017C0EB75
:104DA00063105063704700BF9C0D00201F85EB51BE
:104DB00008B50F4B5A6819680E4800F051FC4FF0C7
:104DC0008043996A01310C48B0FBF1F0D96A013196
:104DD0005A6B4FF0640C0CFB02F2DB6A0133B2FB3E
:104DE000F3F2B0FBF1F1054800F03AFC08BD00BF5A
:104DF0009C0D002008C6000800A24A0420C6000836
:104E000008B5012806D000224FF480710548FEF74E
:104E100030FA08BD01224FF480710248FEF729FAEA
:104E2000F7E700BF000C014008B5012806D00022BA
:104E30004FF400710548FEF71CFA08BD01224FF43B
:104E400000710248FEF715FAF7E700BF000C0140B9
:104E500008B54FF400710248FEF704FA08BD00BF20
:104E6000000C014008B50120FFF7DEFF0120FFF72D
:104E7000C7FF0020FFF7D8FF0020FFF7C1FF08BDE4
:104E800038B504460020FFF7BBFF00250CE00020EA
:104E9000FFF7CAFF6400E4B20120FFF7B1FF002072
:104EA000FFF7AEFF0135EDB2072D06D814F0800FE5
:104EB000EDD00120FFF7B8FFECE738BD08B50020C2
:104EC000FFF79EFF0020FFF7AFFF0120FFF798FFDD
:104ED0000120FFF7A9FF08BD38B504460120FFF700
:104EE000A3FF0120FFF78CFFFFF7B2FF054638B1A3
:104EF000013CA4B2002CF7D0FFF7E0FF012501E050
:104F0000FFF77EFF284638BD08B50120FFF778FF80
:104F10000120FFF789FF08BDF8B504460E46154687
:104F2000FFF7A0FF2046FFF7ABFF41F28830FFF705
:104F3000D3FF074680B96B1E9CB255B13078FFF79E
:104F40009FFF41F28830FFF7C7FF40B90136254681
:104F5000F1E7FFF7B3FF00E001273846F8BD01276E
:104F6000FBE7000000B583B001904FF6FF7301220C
:104F700001A90348FFF795F8019803B05DF804FB19
:104F8000CC0C002070B50C461646002504E014F841
:104F9000010BFFF7E7FF0135B542F8DB304670BD86
:104FA0000C480D490D4A002302E0D458C450043384
:104FB000C4188C42F9D30A4A0A4C002301E013605A
:104FC0000432A242FBD3FFF731FB00F013F8FCF7E9
:104FD0007FF8704700000020D809002048CA000868
:104FE000D8090020F00D0020FEE700000A22002171
:104FF00001F022B870B50D4E0D4D761BB61006D0DF
:10500000002455F8043B01349847A642F9D1094ED3
:10501000094D06F027FE761BB61006D0002455F881
:10502000043B01349847A642F9D170BD3CCA000840
:105030003CCA000844CA00083CCA0008024B0146AA
:10504000186800F003B800BF2C0000202DE9F04FD5
:1050500001F10B05162D064683B025D8102900F264
:10506000B88000F0F1FA102518224FF0020CB54F6D
:105070003A445368A2F108018B4200F0B7805A68A5
:10508000D96822F003021A449C683046E1608C60C3
:10509000516803F1080441F00101516000F0DAFAAF
:1050A000204603B0BDE8F08F35F0070500F1918090
:1050B000A94200F28E8000F0C7FAB5F5FC7FC0F07F
:1050C00094816B0A00F08C80042B00F26A81AB099A
:1050D00003F1390C03F138044FEACC00994F3844FE
:1050E00043680838984206D10CE0002980F22681F6
:1050F000DB68984206D05A6822F00302511B0F2940
:10510000F3DDA4463C69DFF840E274457AD062687A
:1051100022F00302531B0F2B00F37681002BC7E90B
:1051200004EE80F26781B2F5007F80F019810121E1
:10513000D30852090B4491407A6857F833000A4368
:1051400007EBC3010839A060E1607A6047F833409B
:10515000C46001214FEAAC039940914259D81142F1
:1051600006D12CF0030C490011420CF1040CFAD0CA
:1051700007EBCC0948466446D0F80C80404508D17E
:105180001CE1002B80F22181D8F80C80404500F012
:105190001581D8F8042022F00302531B0F2BF0DDF9
:1051A00008EB050145F00105C8F804503046D8E980
:1051B0000264F460A66043F00104C7E904114C6086
:1051C000C1E902EE48F8023000F044FA08F10804A0
:1051D00002E00C2300243360204603B0BDE8F08FCA
:1051E0004FF400704FF0400C3F2477E7D3689A42A9
:1051F00008BF0CF1020C7FF442AF3C69DFF848E1D4
:10520000744584D101217A684FEAAC0399409142F8
:10521000A5D9BC68636823F003094D4503D8A9EB01
:1052200005030F2B7ADCDFF824B1494BDBF80020B3
:105230001B6801322B4404EB090A00F02F8103F5AF
:1052400080530F3323F47F6828F00F08414630461F
:1052500000F078FA411C024600F0EF80824500F22F
:10526000EA803C4B196841440846196000F04981C6
:10527000DBF80010019301311BBFA2EB0A0A504476
:10528000CBF80020186012F0070B00F01181CBF171
:1052900008010A44CBF5805190440831A1EB080184
:1052A000C1F30B0A51463046009200F04BFA421C03
:1052B000DDE9002300F04B81801A00EB0A08196831
:1052C00048F001005144BC42BA601960506000F0DF
:1052D0002481B9F10F0F40F222814FF0050E606872
:1052E000A9F10C0C2CF0070C00F0010040EA0C00B6
:1052F0006060BCF10F0F04EB0C00C0E901EE00F29E
:105300002E8114465068144B1A688A4238BF1960BF
:10531000124B1A688A4238BF196090E0621943F054
:10532000010345F0010565603046BA6008345360FA
:1053300000F090F9204603B0BDE8F08FD9681A4418
:10534000A2E600BF5804002060040020600800208E
:10535000D40D0020A40D0020CC0D0020D00D002085
:10536000B2F5206F4FEA52235FD3142B00F2B180C5
:1053700003F15C01C9005B3378187958083888421A
:1053800000F08F804B6823F00303934202D98968B1
:105390008842F7D1C8687A68C4E902108460CC609A
:1053A000D7E6142B59D9542B00F29B802B0B03F119
:1053B0006F0C03F16E044FEACC008FE60134A307B3
:1053C00000F108007FF4D8AE53E0444642445368ED
:1053D000D8F80C1043F00103536054F8083F3046EE
:1053E000D9608B6000F036F9F6E64FEAD50C05F18E
:1053F00008023CE622445368304643F00103536000
:1054000000F028F90834E7E6611945F00105656008
:1054100043F00105C7E904113046C1E902EE4D60D1
:10542000A35000F017F90834D6E6930903F13901C7
:10543000C9003833A0E7BC425ED0BC68606820F089
:1054400003084545A8EB050302D80F2B3FF766AFCD
:10545000304600F0FFF80024BEE603F15C0C03F1D7
:105460005B044FEACC0039E659F808394B4540F067
:1054700095801CF0030F0CF1FF3CF5D17B6823EA0B
:1054800001037B60490099423FF6C3AE11B9C0E603
:10549000490004341942FBD0A44669E603F1100820
:1054A000D4E601229B109A407B681A437A6073E726
:1054B00002EB08014942C1F30B0A51463046009203
:1054C00000F040F9431CDDE900237FF4F5AEDA4635
:1054D000F5E6542B26D8130B03F16F01C9006E3388
:1054E0004AE7B3F5AA7F26D8EB0B03F1780C03F15A
:1054F00077044FEACC00F1E5294B18684044186066
:10550000B6E6CAF30B0CBCF1000F7FF4B1AEBC6879
:10551000C84448F001006060F5E61446F3E6012354
:10552000536095E7B3F5AA7F24D8D30B03F1780134
:10553000C900773320E740F25452934224D8AB0C91
:1055400003F17D0C03F17C044FEACC00C6E5ABF11E
:10555000080BD8444FF0000AA8EB0208AFE604F1AC
:1055600008013046009303F0A5FDBC68009B60680D
:105570001968C8E640F254518B420BD8930C03F1E2
:105580007D01C9007C33F7E64FF47E704FF07F0C4D
:105590007E24A3E54FF47E717E23EDE67B6871E700
:1055A000A40D0020830730B548D0541E002A3FD0F8
:1055B0000346CAB201E0013C3AD303F8012B9D0730
:1055C000F9D1032C2DD9CDB245EA05250F2C45EA9A
:1055D000054536D9A4F1100222F00F0C03F1200E7C
:1055E000E6444FEA121C03F1100242E9045542E975
:1055F000025510327245F8D10CF1010214F00C0F73
:1056000003EB021204F00F0C13D0ACF1040323F0EF
:1056100003030433134442F8045B9342FBD10CF0C0
:1056200003042CB1CAB21C4403F8012B9C42FBD1E9
:1056300030BD64461346002CF4D1F9E70346144606
:10564000BFE71A46A446E0E7014803F0D7BF00BF12
:10565000DC0D0020014803F0D3BF00BFDC0D0020AB
:105660000FB400B5074A83B004AB106853F8042B9D
:105670008168019300F0F6FC03B05DF804EB04B020
:10568000704700BF2C000020024B0146186882685A
:1056900004F0F4BC2C00002030B5054689B0084663
:1056A0000C4600F0BFF901210223214A049406921E
:1056B000AA6B04AC0590084401940791AC6802936E
:1056C000039022B3636E13F0010FB4F90C309AB259
:1056D00001D1980525D5910406D4626E43F4005398
:1056E00022F40052A3816266284601AA214603F0F3
:1056F000E1FD636E002814BF4FF0FF350A25DA077D
:1057000002D4A3899B0506D5284609B030BD28469A
:1057100003F0D8FBD6E7A06D03F072FF284609B06E
:1057200030BDA06D03F06AFFB4F90C309AB2D2E735
:105730001CC60008024B01461868FFF7ADBF00BF4A
:105740002C000020002238B5064D044608462A6089
:1057500006F078FA431C00D038BD2B68002BFBD034
:10576000236038BDE80D002000294FF480630CBF92
:105770000222002200F000B82DE9F043694C0E46E9
:10578000D4F80080174604461D4683B0B8F1000FD8
:1057900003D0D8F83830002B77D0022F05D0012F56
:1057A00000F2AC80002DC0F2A980636EDA0752D5FA
:1057B0002146404603F052FB216B41B104F1400306
:1057C000994202D0404603F075FC00232363002376
:1057D000B4F90CC0A3611CF0800F636064D12CF499
:1057E0004A6C2CF0030C022FA4F80CC06AD001AB59
:1057F000214640466A4603F075FFA3891843A081FD
:10580000002D2FD0002E2ED0D8F83830002B38D0D5
:10581000009BC4E90465AB42B4F90C3026601CBFA0
:1058200043F40063A381012F04BF43F00103A3816C
:105830009AB213F008032CD0D1075DD500216D4238
:10584000A561656EA16015F0010527D000252846E9
:1058500003B0BDE8F083A3899B05A9D4A06D03F034
:10586000CDFEA5E7009D2846FFF7E8FB0646002889
:1058700047D0A38943F08003A381D8F83830002BA8
:10588000C6D1404603F01EFBC2E7404603F01AFBB8
:1058900083E7A360656E15F00105D7D1930524D584
:1058A000284603B0BDE8F0834046216903F002FCBE
:1058B000B4F90CC0022F2CF44A6C2CF0030CA4F8A1
:1058C0000CC094D100250021012204F14303236080
:1058D0002361636E4CF0020CD807A4F80CC0A160E1
:1058E0006261DDD41CF4007FDAD1A06D03F088FE84
:1058F000284603B0BDE8F083A560CBE74FF0FF3545
:10590000CEE7DDF80090A94504D04846FFF796FBA6
:10591000064620B94FF0FF35B4F90CC0D3E74D4629
:10592000A7E700BF2C000020830710B5044610D164
:105930000268A2F1013323EA020313F0803F08D189
:1059400050F8042FA2F1013323EA020313F0803F41
:10595000F6D003781BB110F8013F002BFBD100F00B
:1059600003F8204610BD00BF80EA0102844612F011
:10597000030F4FD111F0030F32D14DF8044D11F048
:10598000040F51F8043B0BD0A3F101329A4312F0FB
:10599000803F04BF4CF8043B51F8043B16D100BFD4
:1059A00051F8044BA3F101329A4312F0803FA4F165
:1059B00001320BD14CF8043BA24312F0803F04BFEC
:1059C00051F8043B4CF8044BEAD023460CF8013B59
:1059D00013F0FF0F4FEA3323F8D15DF8044B704703
:1059E00011F0010F06D011F8012B0CF8012B002A41
:1059F00008BF704711F0020FBFD031F8022B12F030
:105A0000FF0F16BF2CF8022B8CF8002012F47F4FEA
:105A1000B3D1704711F8012B0CF8012B002AF9D1F2
:105A2000704700BF20F0030110F00300C0F1000038
:105A300051F8043B00F1040C4FEACC0C6FF000026B
:105A40001CBF22FA0CF213434FF0010C4CEA0C2C51
:105A50004CEA0C4CA3EB0C0222EA030212EACC1231
:105A600004BF51F8043B0430F4D0C2F1000102EA53
:105A70000102B2FA82F2C2F11F0200EBD2007047BB
:105A80002DE9F04F012B1D4681460F469046ADF2A1
:105A90001C4D40F24781012300219C464FF0FF340A
:105AA0001A4606E019460122A3EB040C8B189D420E
:105AB00010D908EB0400805C18F803608642F1D32B
:105AC00000F081804FF0010C62460C4661448B1857
:105AD0009D42EED8CDF808C04FF0010C00204FF0E9
